:100000000C9471000C9499000C9499000C94990034
:100010000C9499000C9499000C9499000C949900FC
:100020000C9499000C9499000C9499000C94B906C6
:100030000C9499000C9499000C9499000C949900DC
:100040000C946F060C9499000C943D060C941706C2
:100050000C9499000C9499000C9499000C949900BC
:100060000C9499000C94990086049304A204AF04A4
:10007000BC04C904D604E304D30AD60AD90ADC0AAC
:10008000E30AE60AE90A00000000240027002A002B
:1000900000000000250028002B00000000080002DE
:1000A0000100000304070000000000000000000041
:1000B00000002300260029000404040404040404AE
:1000C0000202020202020303030303030102040803
:1000D00010204080010204081020010204081020B2
:1000E000BF0711241FBECFEFD8E0DEBFCDBF11E0A8
:1000F000A0E0B1E0E8E7FBE102C005900D92A03D71
:10010000B107D9F722E0A0EDB1E001C01D92A03FF8
:10011000B207E1F710E0C1E7D0E004C02197FE018B
:100120000E94120BC037D107C9F70E943D080C94FA
:10013000BA0D0C940000E3EEF1E0A089B18982E0F1
:100140008C93A485B5851C92A685B7858FEC8C937E
:10015000108EA489B58986E08C93A289B3898C918D
:1001600080618C93A289B3898C9188608C93A289D9
:10017000B3898C9180688C930288F389E02D80810B
:100180008F7D80830895E091E301F091E401019077
:10019000F081E02D682F83EE91E00994CF92DF92F9
:1001A000EF92FF92DC01A03282E0B8070CF03EC073
:1001B000B7FD06C0A53BB1052CF0A4EBB0E002C032
:1001C000A0E0B0E08091EE0228E830E06901C81AB2
:1001D000D10887FDD394CC0CDD1CCC0CDD1C0D2C80
:1001E000000CEE08FF088091EF0228E532E0281BA2
:1001F000310987FD3395220F331F220F331FA901C9
:10020000330F660B770B9A01AB012C193D094E0990
:100210005F090E94A30D24EB30E040E050E00E9413
:10022000790DC20ED31EE41EF51ED6019091ED028B
:100230009C3098F58091EE0248E850E0481B510947
:1002400087FD5395440F551F440F551FA417B5073D
:100250008CF08091EF0228E532E0281B310987FD00
:100260003395220F331F220F331FAD012A173B078F
:100270000CF4A90142505109440F551F2FB7F894AF
:10028000892F90E0FC01EE0FFF1F8E0F9F1FFC01D6
:10029000E853FD4F528341832FBFFF90EF90DF90D3
:1002A000CF900895CF92DF92EF92FF920F931F931A
:1002B000CF93DF936C017A018B01C0E0D0E0CE15C3
:1002C000DF0589F0D8016D918D01D601ED91FC918A
:1002D0000190F081E02DC6010995892B11F47E0172
:1002E00002C02196ECCFC701DF91CF911F910F91F2
:1002F000FF90EF90DF90CF900895FC01918D828D5B
:10030000981761F0828DDF01A80FB11D5D968C9169
:10031000928D9F5F9F73928F90E008958FEF9FEF74
:100320000895FC01918D828D981731F0828DE80F30
:10033000F11D858D90E008958FEF9FEF0895FC01EA
:10034000918D228D892F90E0805C9F4F821B9109B7
:100350008F739927089583EE91E00E949F0121E019
:10036000892B09F420E0822F0895FC01848DDF01A0
:10037000A80FB11DA35ABF4F2C91848D90E0019618
:100380008F739927848FA689B7892C93A089B18907
:100390008C9180648C93938D848D981306C0028811
:1003A000F389E02D80818F7D80830895EF92FF9205
:1003B0000F931F93CF93DF93EC0181E0888F9B8D88
:1003C0008C8D981305C0E889F989808185FD24C04A
:1003D000F62E0B8D10E00F5F1F4F0F731127E02ECD
:1003E0008C8DE8120CC00FB607FCFACFE889F989AA
:1003F000808185FFF5CFCE010E94B501F1CF8B8DB5
:10040000FE01E80FF11DE35AFF4FF0820B8FEA89DE
:10041000FB898081806207C0EE89FF896083E8895B
:10042000F98980818064808381E090E0DF91CF91C1
:100430001F910F91FF90EF900895CF93DF93EC0100
:10044000888D8823C9F0EA89FB89808185FD05C0F4
:10045000A889B9898C9186FD0FC00FB607FCF5CF2E
:10046000808185FFF2CFA889B9898C9185FFEDCF76
:10047000CE010E94B501E7CFDF91CF91089580E0D2
:1004800090E0892B29F00E94AB0181110C940000AF
:10049000089590E0FC01E656FF4F3491FC01E453CF
:1004A000FF4F2491FC01E854FF4FE491EE2309F43F
:1004B0003BC0332339F1333091F038F43130A9F0B7
:1004C000323001F584B58F7D12C0373091F038306D
:1004D000A1F03430B9F4809180008F7D03C0809109
:1004E00080008F77809380000DC084B58F7784BDA6
:1004F00009C08091B0008F7703C08091B0008F7DDC
:100500008093B000F0E0EE0FFF1FE057FF4FA59182
:10051000B4918FB7F894EC91611103C020952E230C
:1005200001C02E2B2C938FBF0895CF93DF9390E0C3
:10053000FC01E453FF4F2491FC01E854FF4F8491E8
:10054000882361F190E0880F991FFC01EA57FF4F63
:10055000C591D491FC01E057FF4FA591B491611171
:1005600009C09FB7F8948881209582238883EC91F5
:100570002E230BC0623061F49FB7F8943881822F2C
:10058000809583238883EC912E2B2C939FBF06C0EC
:100590008FB7F894E8812E2B28838FBFDF91CF91FE
:1005A00008953FB7F8948091D6019091D701A0911A
:1005B000D801B091D90126B5A89B05C02F3F19F0ED
:1005C0000196A11DB11D3FBFBA2FA92F982F8827D3
:1005D000820F911DA11DB11DBC01CD0142E0660F2E
:1005E000771F881F991F4A95D1F708958F929F9280
:1005F000AF92BF92CF92DF92EF92FF926B017C019C
:100600000E94D1024B015C01C114D104E104F10448
:10061000F1F00E94D102DC01CB0188199909AA09E5
:10062000BB09883E9340A105B10570F321E0C21AD1
:10063000D108E108F10888EE880E83E0981EA11C1D
:10064000B11CC114D104E104F10419F7DDCFFF900E
:10065000EF90DF90CF90BF90AF909F908F900895D4
:100660002FB7F8946091D2017091D3018091D40199
:100670009091D5012FBF089560E086E00E94490265
:1006800060E085E00C94490260E086E00E94490247
:1006900061E085E00C94490261E086E00E94490235
:1006A00060E085E00C94490260E089E00E94490224
:1006B00060E08AE00C94490261E089E00E9449020E
:1006C00060E08AE00C944902CF93DF93EC010E9432
:1006D0005C030E944C03BE01DD0F880B990BDF9178
:1006E000CF910C94F60260E089E00E94490261E03B
:1006F0008AE00C944902CF93DF93EC010E947303CC
:100700000E944403BE01DD0F880B990BDF91CF914E
:100710000C94F6020E94D20B6115710579F0FB0171
:1007200001900020E9F73197AF01461B570BDC0120
:10073000ED91FC910280F381E02D099480E090E03E
:1007400008954F925F926F927F92EF92FF920F9374
:100750001F93CF93DF93CDB7DEB7A1970FB6F89471
:10076000DEBF0FBECDBF7C01FA01CB0119A2223042
:1007700008F42AE08E010F5D1F4F422E512C612C90
:10078000712CBF01A30192010E94570DF901CA010A
:10079000015011096A3014F4605D01C0695CD80130
:1007A0006C93232B242B252B61F7B801C7010E94E2
:1007B0008C03A1960FB6F894DEBF0FBECDBFDF91BC
:1007C000CF911F910F91FF90EF907F906F905F906E
:1007D0004F9008950F931F93CF93DF9300D000D0D5
:1007E000CDB7DEB7AC01990F660B770B77FF1BC057
:1007F0008DE249835A836B837C830E94C3008C0102
:1008000049815A816B817C817095609550954195A5
:100810005F4F6F4F7F4F2AE083EE91E00E94A1036C
:10082000080F191F06C02AE083EE91E00E94A10381
:100830008C016FE871E083EE91E00E948C03800FE1
:10084000911F0F900F900F900F90DF91CF911F91FC
:100850000F9108950F931F93CF93DF9300D000D093
:10086000CDB7DEB7AC01990F660B770B77FF23C0CE
:100870008DE249835A836B837C830E94C3008C0181
:1008800049815A816B817C81709560955095419525
:100890005F4F6F4F7F4F2AE083EE91E00E94A103EC
:1008A000800F911F0F900F900F900F90DF91CF91BD
:1008B0001F910F9108952AE083EE91E00F900F9021
:1008C0000F900F90DF91CF911F910F910C94A10386
:1008D0000C948C038F929F92AF92BF92CF92DF9233
:1008E000EF92FF920F931F93CF93DF93EC0164E697
:1008F00070E080E090E00E94F602C830D10508F078
:1009000065C0FE01EC5CFF4F0C94120B87E890E091
:100910000E94CE006AE171E083EE91E00E946804DB
:1009200087E890E00CC088E790E00E94CE0064E287
:1009300071E083EE91E00E94680488E790E00E94F5
:100940002A044AC089E690E00E94CE0068E271E085
:1009500083EE91E00E94680489E690E0F0CF8AE59A
:1009600090E00E94CE006EE271E083EE91E00E9482
:1009700068048AE590E0E3CF8BE490E00E94CE002B
:100980006AE371E083EE91E00E9468048BE490E0FA
:10099000D6CF8CE390E00E94CE0066E371E083EE58
:1009A00091E00E9468048CE390E0C9CF8DE290E072
:1009B0000E94CE0061E471E083EE91E00E94680441
:1009C0008DE290E0BCCF6CE471E002C062E571E0C2
:1009D00083EE91E00E9468046CE370E080E090E0B8
:1009E0000E94F60260E08BE00E94490283E090E002
:1009F0000197F1F761E08BE00E94490283E290E009
:100A00000197F1F760E08BE00E944902EFECF0E023
:100A10006491EBEBF0E0E491F0E0EE0FFF1FE255A4
:100A2000FF4F8591949100E412E42FE030E0462FCF
:100A30000E947A07611571058105910549F0DC0175
:100A4000CB010196A11DB11DBC01CD019F7003C05A
:100A500060E070E0CB010E94380C26E933E44BE003
:100A60005DE30E94990C20E030E040E05FE30E94EB
:100A7000990C6B017C0120E030E040EA51E40E94D7
:100A8000330C182F111F1127111F1093E2016BE572
:100A900071E083EE91E00E946804A7019601C7010E
:100AA000B6010E94CD0B882319F068E671E01AC0E8
:100AB00046015701E894B7F82FEF3FEF4FE75FE7A4
:100AC000C501B4010E94CD0B811111C02FEF3FEF82
:100AD0004FE75FE7C501B4010E94330C18163CF4E0
:100AE0006CE671E083EE91E00E948C0379C02FEFF9
:100AF0003FEF4FE75FE4C701B6010E94C80B18162D
:100B00001CF460E771E0EECF2FEF3FEF4FE75FECB3
:100B1000C701B6010E94330C87FDF3CF20E030E01F
:100B2000A901C701B6010E94330C87FF07C08DE2FF
:100B30000E94C300F7FAF094F7F8F0942AE037ED3A
:100B400043EA5BE3C701B6010E942D0B4B015C0138
:100B50000E94990B6B017C010E94380C9B01AC0137
:100B6000C501B4010E942C0B4B015C012AE0B701C6
:100B7000A60183EE91E00E94A1038EE20E94C300D1
:100B800020E030E040E251E4C501B4010E94990C3C
:100B90004B015C010E94990B6B01E12CF12C2AE0C6
:100BA000B701A60183EE91E00E94A103C701B6013F
:100BB0000E94380C9B01AC01C501B4010E942C0BB2
:100BC00020E030E040E251E40E94990C0E94990B31
:100BD000AB0160E070E02AE083EE91E00E94A103A7
:100BE00064E771E083EE91E00E946804112339F01C
:100BF000D0930101C093000181E090E008C087E03C
:100C000090E0909301018093000180E090E00E94C9
:100C1000EA03812FDF91CF911F910F91FF90EF9009
:100C2000DF90CF90BF90AF909F908F9008951F92CC
:100C30000F920FB60F9211242F933F934F935F9310
:100C40006F937F938F939F93AF93BF93EF93FF9394
:100C500083EE91E00E94B501FF91EF91BF91AF91BA
:100C60009F918F917F916F915F914F913F912F91C4
:100C70000F900FBE0F901F9018951F920F920FB6F6
:100C80000F9211242F938F939F93EF93FF93E091F3
:100C9000F301F091F4018081E091F901F091FA0102
:100CA00082FD12C090818091FC018F5F8F73209133
:100CB000FD01821751F0E091FC01F0E0ED51FE4F93
:100CC000958F8093FC0101C08081FF91EF919F91EE
:100CD0008F912F910F900FBE0F901F9018951F921C
:100CE0000F920FB60F9211242F933F938F939F93E0
:100CF000AF93BF938091D2019091D301A091D40181
:100D0000B091D5013091D10123E0230F2D3720F48C
:100D10000196A11DB11D05C026E8230F0296A11D55
:100D2000B11D2093D1018093D2019093D301A09360
:100D3000D401B093D5018091D6019091D701A091B3
:100D4000D801B091D9010196A11DB11D8093D601A2
:100D50009093D701A093D801B093D901BF91AF91DF
:100D60009F918F913F912F910F900FBE0F901F90E9
:100D700018951F920F920FB60F9211242F933F9345
:100D80004F935F936F937F938F939F93AF93BF9393
:100D9000EF93FF938091D00187FF05C010928500EB
:100DA000109284001BC02091D001022E000C330B46
:100DB0008091EC0290E02817390784F48091D001EB
:100DC000082E000C990BFC01EE0FFF1F8E0F9F1FCA
:100DD000FC01E853FD4F808186FD15C08091D00154
:100DE0008F5F8093D0012091D001022E000C330B35
:100DF0008091EC0290E028173907C4F48091D0016B
:100E00008C3064F113C08091D001082E000C990B36
:100E1000FC01EE0FFF1F8E0F9F1FFC01E853FD4FDB
:100E2000808160E08F730E944902D8CF8091840056
:100E300090918500049680349C4918F480E49CE9E4
:100E400005C080918400909185000496909389005C
:100E5000809388008FEF8093D0013BC02091840065
:100E6000309185008091D001082E000C990BFC0177
:100E7000EE0FFF1F8E0F9F1FFC01E853FD4F818176
:100E80009281820F931F90938900809388008091B4
:100E9000D001082E000C990BFC01EE0FFF1F8E0FE6
:100EA0009F1FFC01E853FD4F808186FF12C0809197
:100EB000D001082E000C990BFC01EE0FFF1F8E0FC6
:100EC0009F1FFC01E853FD4F808161E08F730E94FA
:100ED0004902FF91EF91BF91AF919F918F917F91C7
:100EE0006F915F914F913F912F910F900FBE0F9097
:100EF0001F901895CF92DF92EF92FF920F931F935E
:100F0000E82FF92F05C0015011092109310961F1BC
:100F1000908196239417B9F305C001501109210956
:100F2000310911F1908196239413F7CFC12CD12C64
:100F3000E12CF12C0AC08FEFC81AD80AE80AF80A87
:100F40000C151D052E053F0579F080818623841739
:100F500091F36C2D7D2D8E2D9F2D1F910F91FF9064
:100F6000EF90DF90CF90089560E070E080E090E037
:100F70001F910F91FF90EF90DF90CF900895109206
:100F8000E6011092E50188EE93E0A0E0B0E08093E6
:100F9000E7019093E801A093E901B093EA018EE0A4
:100FA00091E09093E4018093E30185EC90E09093CD
:100FB000F0018093EF0184EC90E09093F201809334
:100FC000F10180EC90E09093F4018093F30181ECC7
:100FD00090E09093F6018093F50182EC90E090937D
:100FE000F8018093F70186EC90E09093FA018093EA
:100FF000F9011092FC011092FD011092FE01109275
:10100000FF011092860210928702109288021092BD
:10101000890210928A0210928B0210928C02109216
:101020008D0210928E0210928F02109290021092F6
:1010300091021092920210929302109294021092D6
:1010400095028091EC028C30A0F491E0980F90937F
:10105000EC028093ED0290E0FC01EE0FFF1F8E0F7B
:101060009F1FFC01E853FD4F88EB9BE09283818337
:1010700008958FEF8093ED020895789484B582608F
:1010800084BD84B5816084BD85B5826085BD85B52C
:10109000816085BD80916E00816080936E001092AA
:1010A0008100809181008260809381008091810025
:1010B00081608093810080918000816080938000B6
:1010C0008091B10084608093B1008091B000816014
:1010D0008093B00080917A00846080937A00809140
:1010E0007A00826080937A0080917A008160809398
:1010F0007A0080917A00806880937A001092C10013
:101100001092C4021092C5021092C6021092C70239
:101110001092820210928302109284021092850231
:1011200060ED77E080E090E00E94F60283EE91E0CF
:101130009093C3028093C2020E949B000E943003DE
:10114000609382027093830280938402909385025D
:1011500060E871E08091C2029091C3020E9468042D
:101160006AE070E080E090E00E94F60281E0809307
:10117000960261E089E00E94950261E08AE00E94A7
:10118000950261E086E00E94950261E085E00E94A0
:10119000950261E08BE00E94950260E083E00E948E
:1011A00095020E949B0061E08DE00E949502809173
:1011B000ED028C3008F051C061E08CE00E94950295
:1011C0008091ED02E82FF0E09F01220F331FE20F24
:1011D000F31FE853FD4F9081907C9C6090831092A8
:1011E000EE021092EF026CE00E94F20A2CE0829F65
:1011F000B001112440E050E09A01260F371FF90199
:10120000EE0FFF1F2E0F3F1FF901E853FD4F908196
:1012100096FD16C04F5F5F4F4C30510569F7811145
:101220000FC01092800082E08093810010928500B0
:1012300010928400B19A80916F00826080936F0059
:10124000E091ED02F0E0CF01880F991FE80FF91F40
:10125000E853FD4F808180648083C0E0D0E0CE0100
:101260000E94CE006AE070E080E090E00E94F6020A
:101270002196CB35D10599F768E873E180E090E0DD
:101280000E94F60284EFC82EDD24D394E12CF12CC9
:1012900004E610E00E943003672B682B692B41F4B1
:1012A0000E943003623071058105910508F40BC17D
:1012B0000E9430036093DE017093DF018093E001B0
:1012C0009093E1018090DA019090DB01A090DC0125
:1012D000B090DD01681579058A059B0540F460939F
:1012E000DA017093DB018093DC019093DD01809043
:1012F000DA019090DB01A090DC01B090DD019B0150
:10130000AC01281939094A095B0949015A013AEF28
:1013100083169104A104B10408F4D5C06093DA01E6
:101320007093DB018093DC019093DD01C0928E020B
:10133000D0928F02E0929002F0929102109292026B
:10134000109293021092940210929502809186025C
:1013500090918702A0918802B091890280938A02BD
:1013600090938B02A0938C02B0938D020E94300365
:10137000609386027093870280938802909389021B
:101380000E943003609382027093830280938402F0
:10139000909385020E9430034B015C0162E971E089
:1013A0008091C2029091C3020E9468042AE041E049
:1013B00050E060E070E08091C2029091C3020E9410
:1013C000A10369E971E08091C2029091C3020E9479
:1013D00068042AE0B501A4018091C2029091C30281
:1013E0000E94A1036BE971E08091C2029091C30257
:1013F0000E9468048091860290918702A0918802E1
:10140000B0918902B501A401481B590B6A0B7B0BF3
:101410002AE08091C2029091C3020E94A1036BE96D
:1014200071E08091C2029091C3020E9468044091D1
:1014300086025091870260918802709189028091A2
:101440008A0290918B02A0918C02B0918D02481B70
:10145000590B6A0B7B0B2AE08091C2029091C30268
:101460000E94A1036DE971E08091C2029091C302D4
:101470000E9468040E943003AB01BC012AE0809105
:10148000C2029091C3020E94A103C091C202D091F6
:10149000C3026FE971E0CE010E948C036FE871E036
:1014A000CE010E948C0365E070E080E090E00E9435
:1014B000F6020E9430036093860270938702809345
:1014C0008802909389020E94230CB8010E94FE0AB0
:1014D000EC012196C170DD2780E090E00E946A0453
:1014E00081112BC081E090E00E946A04811125C027
:1014F00082E090E00E946A0481111FC083E090E0C6
:101500000E946A04811119C084E090E00E946A047C
:10151000811113C085E090E00E946A0481110DC022
:1015200086E090E00E946A04811107C00E94730364
:101530000E944C030E943F02ADCE8091E2018823BD
:1015400039F161E08DE00E94490266EA71E083EEC4
:1015500091E00E948C036FE871E083EE91E00E94BD
:101560008C030E9454030E943C030E945C030E946F
:10157000440364EF71E080E090E00E94F60288EEA0
:1015800093E00E94640360E08DE00E94490225C060
:10159000E0910001F0910101E730F105F0F4E45C25
:1015A000FF4F0C94120B88EC90E00AC08AEF90E099
:1015B00007C08EE591E004C084EF91E0209759F0D8
:1015C0000E947B030AC08EE591E005C08AEF90E09F
:1015D00002C088EC90E00E9464030E9454030E94C1
:1015E0003C037ACF991B79E004C0991F961708F045
:1015F000961B881F7A95C9F78095089597FB072E4B
:1016000016F4009407D077FD09D00E94180B07FC50
:1016100005D03EF4909581959F4F08957095619502
:101620007F4F0895EE0FFF1F0590F491E02D099470
:10163000AA1BBB1B51E107C0AA1FBB1FA617B707F8
:1016400010F0A61BB70B881F991F5A95A9F7809514
:101650009095BC01CD0108955058BB27AA270E9440
:10166000440B0C941D0D0E940F0D38F00E94160DB6
:1016700020F039F49F3F19F426F40C940C0D0EF46D
:10168000E095E7FB0C94060DE92F0E942E0D58F310
:10169000BA17620773078407950720F079F4A6F557
:1016A0000C94500D0EF4E0950B2EBA2FA02D0B01CB
:1016B000B90190010C01CA01A0011124FF27591B97
:1016C00099F0593F50F4503E68F11A16F040A22F9D
:1016D000232F342F4427585FF3CF4695379527950E
:1016E000A795F0405395C9F77EF41F16BA0B620B0D
:1016F000730B840BBAF09150A1F0FF0FBB1F661F54
:10170000771F881FC2F70EC0BA0F621F731F841F96
:1017100048F4879577956795B795F7959E3F08F0BC
:10172000B0CF9395880F08F09927EE0F979587957E
:1017300008950E94360D88F09F5798F0B92F992789
:10174000B751B0F0E1F0660F771F881F991F1AF0AC
:10175000BA95C9F714C0B13091F00E94500DB1E0B4
:1017600008950C94500D672F782F8827B85F39F0B3
:10177000B93FCCF3869577956795B395D9F73EF445
:1017800090958095709561957F4F8F4F9F4F0895ED
:101790000E94750C08F48FEF08950E94750C880B59
:1017A000990B089581E090E0F8940C94BA0D8F9213
:1017B0009F92AF92BF92CF92DF92EF92FF92CF9320
:1017C000DF93EC01688179818A819B8161157105C4
:1017D0008105910521F464E279ED8BE597E02DE137
:1017E00033EF41E050E00E94790D49015A019B011D
:1017F000AC01A7EAB1E40E94980D6B017C01ACEE4C
:10180000B4EFA50194010E94A60DDC01CB018C0D63
:101810009D1DAE1DBF1DB7FF03C00197A109B048B4
:1018200088839983AA83BB839F77DF91CF91FF90B1
:10183000EF90DF90CF90BF90AF909F908F900895E2
:101840000E94D70B089582E091E00E94D70B089583
:10185000A0E0B0E08093020190930301A093040103
:10186000B093050108950E94750C08F481E0089575
:10187000E89409C097FB3EF490958095709561952A
:101880007F4F8F4F9F4F9923A9F0F92F96E9BB27E0
:101890009395F695879577956795B795F111F8CF5C
:1018A000FAF4BB0F11F460FF1BC06F5F7F4F8F4FC7
:1018B0009F4F16C0882311F096E911C0772321F0BD
:1018C0009EE8872F762F05C0662371F096E8862F55
:1018D00070E060E02AF09A95660F771F881FDAF7AC
:1018E000880F9695879597F90895990F0008550FD9
:1018F000AA0BE0E8FEEF16161706E807F907C0F096
:1019000012161306E407F50798F0621B730B840B9D
:10191000950B39F40A2661F0232B242B252B21F477
:1019200008950A2609F4A140A6958FEF811D811D17
:1019300008950E94AC0C0C941D0D0E940F0D38F000
:101940000E94160D20F0952311F00C94060D0C94B6
:101950000C0D11240C94510D0E942E0D70F3959FC7
:10196000C1F3950F50E0551F629FF001729FBB2796
:10197000F00DB11D639FAA27F00DB11DAA1F649F32
:101980006627B00DA11D661F829F2227B00DA11DE5
:10199000621F739FB00DA11D621F839FA00D611D6B
:1019A000221F749F3327A00D611D231F849F600D8C
:1019B000211D822F762F6A2F11249F5750409AF0B5
:1019C000F1F088234AF0EE0FFF1FBB1F661F771F41
:1019D000881F91505040A9F79E3F510580F00C940C
:1019E000060D0C94510D5F3FE4F3983ED4F38695B9
:1019F00077956795B795F795E7959F5FC1F7FE2BAC
:101A0000880F911D9695879597F9089597F99F6787
:101A100080E870E060E008959FEF80EC0895002476
:101A20000A941616170618060906089500240A9443
:101A300012161306140605060895092E0394000CC9
:101A400011F4882352F0BB0F40F4BF2B11F460FF58
:101A500004C06F5F7F4F8F4F9F4F089557FD905881
:101A6000440F551F59F05F3F71F04795880F97FB62
:101A7000991F61F09F3F79F087950895121613061C
:101A80001406551FF2CF4695F1DF08C0161617064B
:101A90001806991FF1CF8695710561050894089580
:101AA000E894BB2766277727CB0197F90895A1E231
:101AB0001A2EAA1BBB1BFD010DC0AA1FBB1FEE1FC8
:101AC000FF1FA217B307E407F50720F0A21BB30B13
:101AD000E40BF50B661F771F881F991F1A9469F78F
:101AE00060957095809590959B01AC01BD01CF01EB
:101AF0000895052E97FB1EF400940E94900D57FD4B
:101B000007D00E94570D07FC03D04EF40C94900DA3
:101B100050954095309521953F4F4F4F5F4F089519
:101B200090958095709561957F4F8F4F9F4F089549
:101B30000E94AB0DA59F900DB49F900DA49F800DAA
:101B4000911D11240895B7FF0C94980D0E94980DD3
:101B5000821B930B0895A29FB001B39FC001A39F66
:101B6000700D811D1124911DB29F700D811D1124D6
:081B7000911D0895F894FFCFC8
:101B78000700010000000100000000000000D6017D
:101B880052019F017D0191011D024C6566744D6FE4
:101B980073743A00486967684C6566743A004D6921
:101BA80064646C653A004869676852696768743AA2
:101BB8000052696768744D6F73743A004E6F6E65B2
:101BC8003A0064656661756C743A00202C2064697B
:101BD8007374616E63653A006E616E00696E6600CB
:101BE8006F766600202C20626C6F636B65643A0028
:101BF800564D4450565F317C315F564D4450560D1A
:101C08000A00564D4450455F003A323A007C005F66
:101C1800564D44504500537461747573206372695E
:101C2800746963616C206F72206661696C656420F9
:101C380074687265652074696D65732E2E2E0000B8
:107E0000112484B714BE81FFF0D085E080938100F7
:107E100082E08093C00088E18093C10086E0809377
:107E2000C20080E18093C4008EE0C9D0259A86E02C
:107E300020E33CEF91E0309385002093840096BBD3
:107E4000B09BFECF1D9AA8958150A9F7CC24DD24C4
:107E500088248394B5E0AB2EA1E19A2EF3E0BF2EE7
:107E6000A2D0813461F49FD0082FAFD0023811F036
:107E7000013811F484E001C083E08DD089C08234E0
:107E800011F484E103C0853419F485E0A6D080C0E4
:107E9000853579F488D0E82EFF2485D0082F10E0AE
:107EA000102F00270E291F29000F111F8ED06801E7
:107EB0006FC0863521F484E090D080E0DECF843638
:107EC00009F040C070D06FD0082F6DD080E0C81688
:107ED00080E7D80618F4F601B7BEE895C0E0D1E017
:107EE00062D089930C17E1F7F0E0CF16F0E7DF06D8
:107EF00018F0F601B7BEE89568D007B600FCFDCFD4
:107F0000A601A0E0B1E02C9130E011968C91119780
:107F100090E0982F8827822B932B1296FA010C0160
:107F200087BEE89511244E5F5F4FF1E0A038BF0790
:107F300051F7F601A7BEE89507B600FCFDCF97BE46
:107F4000E89526C08437B1F42ED02DD0F82E2BD052
:107F50003CD0F601EF2C8F010F5F1F4F84911BD097
:107F6000EA94F801C1F70894C11CD11CFA94CF0C13
:107F7000D11C0EC0853739F428D08EE10CD085E9AC
:107F80000AD08FE07ACF813511F488E018D01DD067
:107F900080E101D065CF982F8091C00085FFFCCF94
:107FA0009093C60008958091C00087FFFCCF809118
:107FB000C00084FD01C0A8958091C6000895E0E648
:107FC000F0E098E1908380830895EDDF803219F02E
:107FD00088E0F5DFFFCF84E1DECF1F93182FE3DFCA
:107FE0001150E9F7F2DF1F91089580E0E8DFEE27F6
:047FF000FF270994CA
:027FFE00040479
:0400000300007E007B
:00000001FF